:020000040800F2
:1000000000000120590200089D0200089D0200081E
:100010009D0200089D0200089D02000800000000EB
:100020000000000000000000000000009D02000829
:100030009D020008000000009D0200089D020008CB
:100040009D0200089D0200089D0200089D02000814
:100050009D0200089D0200089D0200089D02000804
:100060009D0200089D0200089D0200089D020008F4
:100070009D0200089D0200089D0200089D020008E4
:100080009D0200089D0200089D0200089D020008D4
:100090009D0200089D0200089D0200089D020008C4
:1000A0009D0200089D0200089D0200089D020008B4
:1000B0009D0200089D0200089D0200089D020008A4
:1000C0009D0200089D0200089D0200089D02000894
:1000D0009D0200089D0200089D0200089D02000884
:1000E0009D0200089D0200089D0200089D02000874
:1000F0009D0200089D0200089D0200089D02000864
:100100009D0200089D0200089D0200089D02000853
:100110009D0200089D0200089D0200089D02000843
:100120009D0200089D0200089D0200089D02000833
:1001300000000000000000000000000000000000BF
:1001400000000000000000000000000000000000AF
:10015000000000000000000000000000000000009F
:10016000000000000000000000000000000000008F
:10017000000000000000000000000000000000007F
:10018000000000000000000000000000000000006F
:10019000000000000000000000000000000000005F
:1001A000000000000000000000000000000000004F
:1001B000000000000000000000000000000000003F
:1001C000000000000000000000000000000000002F
:1001D000000000000000000000000000000000001F
:0401E0005FF8E0F1F3
:1001E40080B400AF0F4B1B680E4A43F00803136042
:1001F4000D4B1B680C4A23F00F0313600A4B1B685A
:10020400094A43F001031360084B1B68074A23F0B3
:1002140001031360064B01229A6000231846BD4671
:1002240080BC704718100240000C01400C0C0140C7
:100234000010024080B400AF00BFBD4680BC7047D0
:10024400A0020008000000200000002000000020A0
:1002540000000020002103E00A4B5B5843500431A6
:1002640009480A4B42189A42F6D3094A02E000238D
:1002740042F8043B074B9A42F9D3FFF7DBFFFFF741
:10028400AFFF7047A002000800000020000000201B
:0C0294000000002000000020FEE7000039
:040000050800025994
:00000001FF
